:100000000C9443010C9474010C9474010C947401CD
:100010000C9474010C9474010C9474010C9474018C
:100020000C9474010C9474010C9474010C9474017C
:100030000C9474010C9474010C9474010C9474016C
:100040000C9474010C9474010C9474010C9474015C
:100050000C9474010C9474010C9474010C943A0681
:100060000C9474010C9409060C94DF050C94740133
:100070000C9474010C9474010C9474010C9474012C
:100080000C9474010C9474010C9474010C9474011C
:100090000C9474010C9474010C9474010C9474010C
:1000A0000C9474010C9474010C9474010C947401FC
:1000B0000C9474010C9474010C9474010C947401EC
:1000C0000C9474010C9474010C9474010C947401DC
:1000D0000C9474010C9474010C9474010C947401CC
:1000E0000C9474010C94B2020C9453050C942202EB
:1000F0000C9499070C947D020C94C0020C94E902B4
:100100000C948C040C9497040C94DB020C94CD0298
:100110000C94A1040C9485010C94E5020C94F70254
:100120000C9413050C9476010C94C7020C94BC0239
:100130000C94F3020C94A7010C94B0040C94880462
:100140000C94D1020C94F2020C94D5010C949901F8
:100150000C94ED020C94D7020C94DF020C94B802BC
:100160000C94C40200002100240027002A002D0066
:100170003000330001010000040107010A01000002
:100180002200250028002B002E003100340002013F
:100190000000050108010B010000200023002600DB
:1001A00029002C002F00320000010000030106018D
:1001B00009010505050507050808080802020202ED
:1001C0000A0A0808040404040101010101010101F3
:1001D0000303030303030303040707070C0C0C0CBE
:1001E0000C0C0C0C020202020606060606060606A7
:1001F0000B0B0B0B0B0B0B0B010210202008081034
:100200002040102040800201020108040201010286
:10021000040810204080804020100804020180045F
:1002200002018040201008040201080402010102BA
:1002300004081020408001020408102040800000C3
:100240000A0B02090C0D0E08070304010000000050
:10025000000000000000000000000000000000009E
:10026000000000000000000000001211100000005B
:10027000000000000000000000000000000000007E
:1002800000000000990711241FBECFEFD1E2DEBFAE
:10029000CDBF00E00CBF23E0A2EBB2E001C01D9295
:1002A000A33AB207E1F712E0A0E0B2E0EEE8F5E130
:1002B00000E00BBF02C007900D92A23BB107D9F737
:1002C00011E0C3E4D1E000E006C021970109802FCE
:1002D000FE010E94AB0AC234D10780E00807A9F7EB
:1002E0000E9482060C94F4080C940000FC01538DCB
:1002F000448D252F30E0842F90E0821B930B541700
:1003000010F0CF96089501970895FC01918D828D8C
:10031000981761F0A28DAE0FBF2FB11D5D968C9125
:10032000928D9F5F9F73928F90E008958FEF9FEF64
:100330000895FC01918D828D981731F0828DE80F20
:10034000F11D858D90E008958FEF9FEF0895FC01DA
:10035000918D228D892F90E0805C9F4F821B9109A7
:100360008F7399270895FC01A48DA80FB92FB11D93
:10037000A35ABF4F2C91848D90E001968F739927DB
:10038000848FA689B7892C93A089B1898C918370B9
:1003900080648C93938D848D981306C00288F389B2
:1003A000E02D80818F7D80830895EF92FF920F93DF
:1003B0001F93CF93DF93EC01F62E81E0888F9B8D06
:1003C0008C8D98131AC0E889F989808185FF15C042
:1003D0009FB7F894EE89FF896083E889F989808165
:1003E0008370806480839FBF81E090E0DF91CF9134
:1003F0001F910F91FF90EF9008950B8D10E00F5F0C
:100400001F4F0F731127E02E8C8D8E110CC00FB66D
:1004100007FCFACFE889F989808185FFF5CFCE0105
:100420000E94B301F1CFEB8DEC0FFD2FF11DE35ACC
:10043000FF4FF0829FB7F8940B8FEA89FB89808188
:100440008062D0CFCF93DF93EC01888D8823B9F001
:10045000AA89BB89E889F9898C9185FD03C08081CF
:1004600086FD0DC00FB607FCF7CF8C9185FFF2CF4C
:10047000808185FFEDCFCE010E94B301E9CFDF91EE
:10048000CF9108958EEF92E00E94A70121E0892B81
:1004900009F420E0822F089580E090E0892B29F074
:1004A0000E94420281110E94000080E090E0892BAE
:1004B00049F080E090E0892B29F00E940000811132
:1004C0000E94000080E090E0892B49F080E090E0FD
:1004D000892B29F00E94000081110E94000080E019
:1004E00090E0892B49F080E090E0892B29F00E9470
:1004F000000081110C9400000895CF92DF92EF92DA
:10050000FF920F931F93CF93DF937C016A0110E05A
:1005100000E00C151D0581F0EB01D701ED91FC9178
:100520000190F081E02D6991C7011995892B21F087
:100530000F5F1F4FBE01EDCFC801DF91CF911F911B
:100540000F91FF90EF90DF90CF900895815082310E
:1005500008F048C0E82FF0E08827EB54F54F8F4FA4
:100560000C94AB0A809180008F778093800008956F
:10057000809180008F7DF9CF80918000877FF5CFBB
:1005800084B58F7784BD089584B58F7DFBCF80912E
:10059000B0008F778093B00008958091B0008F7D78
:1005A000F9CF809190008F7780939000089580918B
:1005B00090008F7DF9CF80919000877FF5CF80915B
:1005C000A0008F778093A00008958091A0008F7D78
:1005D000F9CF8091A000877FF5CF809120018F77A0
:1005E000809320010895809120018F7DF9CF809123
:1005F0002001877FF5CFCF93DF93E8E4F2E0849189
:10060000E2E0F2E0D491ECEBF1E0C491CC23A1F074
:1006100081110E94A602EC2FF0E0EE0FFF1FE856BA
:10062000FE4FA591B491EC91ED2381E090E009F4A7
:1006300080E0DF91CF91089580E090E0FACFCF93F2
:10064000DF93282F30E0F901E25CFD4F8491F9013E
:10065000E850FE4FD491F901EE54FE4FC491CC23E3
:1006600091F081110E94A602EC2FF0E0EE0FFF1F27
:10067000E258FE4FA591B4918FB7F894EC91D095C4
:10068000DE23DC938FBFDF91CF910895CF93DF936B
:1006900090E0FC01E850FE4F24918E549E4FFC01E7
:1006A00084918823D1F090E0880F991FFC01EC59C8
:1006B000FE4FA591B491FC01E258FE4FC591D49133
:1006C00061110EC09FB7F8948C91E22FE0958E23B4
:1006D0008C932881E223E8839FBFDF91CF91089517
:1006E0008FB7F894EC91E22BEC938FBFF6CF789410
:1006F00084B5826084BD84B5816084BD85B5826027
:1007000085BD85B5816085BDEEE6F0E080818160C4
:100710008083E1E8F0E010828081826080838081C4
:1007200081608083E0E8F0E0808181608083E1EB9C
:10073000F0E0808184608083E0EBF0E08081816084
:100740008083E1E9F0E08081826080838081816044
:100750008083E0E9F0E0808181608083E1EAF0E07D
:10076000808182608083808181608083E0EAF0E024
:10077000808181608083E1E2F1E08081826080831A
:10078000808181608083E0E2F1E08081816080830C
:10079000EAE7F0E0808184608083808182608083EA
:1007A0008081816080838081806880831092C10015
:1007B00008953FB7F8948091B8029091B902A09142
:1007C000BA02B091BB0226B5A89B05C02F3F19F015
:1007D0000196A11DB11D3FBFBA2FA92F982F8827C1
:1007E000BC01CD01620F711D811D911D42E0660F9C
:1007F000771F881F991F4A95D1F708958F929F926E
:10080000AF92BF92CF92DF92EF92FF924B015C01C9
:100810000E94D9036B017C010E94D9036C197D09E8
:100820008E099F09683E734081059105A8F321E078
:10083000821A9108A108B10888EEC80E83E0D81E7C
:10084000E11CF11C81149104A104B10429F7FF906B
:10085000EF90DF90CF90BF90AF909F908F900895D2
:10086000809581B961E070E080E090E00E94FE0335
:1008700061E089E00E94460361E070E080E090E082
:100880000E94FE0360E089E00E9446036FE070E092
:1008900080E090E00C94FE03CF93C62F20E1829F6E
:1008A000C001112482600E94300420E1C29FC00177
:1008B000112488600E9430048C2F807F8460CF9147
:1008C0000C943004009799F0FC0101900020E9F7A6
:1008D0003197AF01481B590BE091FE02F091FF02E6
:1008E0000280F381E02DBC018EEF92E0199490E03C
:1008F00080E00895CF93DF930E946204EC0188E1C9
:1009000092E00E9462048C0F9D1FDF91CF910895A9
:100910008BE192E00C947A0461E088E00E94460347
:1009200081E08093B20280E292E00C947A0460E06D
:1009300088E00E9446031092B20280E292E00C949A
:100940007A048091B202811104C088E292E00C9492
:100950007A046FEF87E00E944C0480E292E0F7CFC8
:100960008091B202811104C088E292E00C947A0472
:100970008CE00E94300480E492E00E947A0465E0FA
:1009800070E080E090E00E94FE030E94FB02892B51
:10099000E1F380E292E0EACFCF92DF92EF92FF9212
:1009A0000F931F93CF93DF93CDB7DEB7A1970FB609
:1009B000F894DEBF0FBECDBF482F50E070E060E07E
:1009C00019A2CE0181968A019B010F70112722275F
:1009D00033276A017B0124E0F694E794D794C79407
:1009E0002A95D1F70A30ECF4005DFC010293CF01A7
:1009F000403151056105710588F40E946204A19699
:100A00000FB6F894DEBF0FBECDBFDF91CF911F911F
:100A10000F91FF90EF90DF90CF900895B701A6015E
:100A2000D2CF095CE2CF1F93CF93DF938091B202C4
:100A3000C0E0811107C088E292E0DF91CF911F9161
:100A40000C947A0461E080E00E944C046C2F81E0F9
:100A50000E944C0481E80E943004D6B181E90E94D2
:100A6000300416B160E080E00E944C048C2F0E949C
:100A7000CC0488E492E00E946204812F0E94CC049E
:100A8000D03120F48AE492E00E9462048D2F0E940B
:100A9000CC0488E192E00E946204CF5FC03191F6FD
:100AA00080E292E0CACF1F93CF93DF93FB010297BE
:100AB0003CF48CE492E0DF91CF911F910C947A0486
:100AC0008091B202811103C088E292E0F4CF40E14C
:100AD00050E070E060E0828193810E94C607D62FCB
:100AE00061E080E00E944C046D2F81E00E944C0484
:100AF00081E80E943004C6B181E90E94300416B139
:100B000060E080E00E944C048D2F0E94CC0488E4B9
:100B100092E00E946204812F0E94CC04C03120F434
:100B20008AE492E00E9462048C2F0E94CC0488E147
:100B300092E00E94620480E292E0BDCFCF92DF9209
:100B4000EF92FF920F931F93CF93DF936C018B0172
:100B500086E090E00E942E09EC019093BF02809302
:100B6000BE02F60101900020E9F7CF018C199D0922
:100B70000E942E097C01B6010E94580AF6010190DC
:100B80000020E9F73197EC19FD09EE0DFF1D1082E9
:100B9000F982E8821B830A838091BC029091BD0296
:100BA0009D838C83D093BD02C093BC02DF91CF9113
:100BB0001F910F91FF90EF90DF90CF9008951F92BB
:100BC0000F920FB60F9211240BB60F922F933F93F3
:100BD0004F935F936F937F938F939F93AF93BF9345
:100BE000EF93FF938EEF92E00E94B301FF91EF919C
:100BF000BF91AF919F918F917F916F915F914F9135
:100C00003F912F910F900BBE0F900FBE0F901F9032
:100C100018952F932FB72F932BB72F938F939F93C5
:100C2000EF93FF93E0910E03F0910F038081E09129
:100C30001403F091150382FD1BC09081809117036E
:100C40008F5F8F7320911803821741F0E091170393
:100C5000F0E0E250FD4F958F80931703FF91EF91E5
:100C60009F918F912F912BBF2F912FBF2F9118956F
:100C70008081F4CF1F921FB61F9211242F933F93B0
:100C80008F939F93AF93BF938091B4029091B502DD
:100C9000A091B602B091B7023091B30223E0230FC6
:100CA0002D3750F50196A11DB11D2093B3028093FD
:100CB000B4029093B502A093B602B093B7028091AC
:100CC000B8029091B902A091BA02B091BB0201960C
:100CD000A11DB11D8093B8029093B902A093BA02EE
:100CE000B093BB02BF91AF919F918F913F912F9194
:100CF0001F901FBE1F90189526E8230F0296A11D76
:100D0000B11DD3CFCDB7DEB7EC970FB6F894DEBFE9
:100D10000FBECDBF0E94770312B811B818B817B82C
:100D200088E00E941F0389E00E941F038AE00E945E
:100D30001F0380EC92E09093FD028093FC021092DE
:100D4000BD021092BC02E0910E03F0910F0382E00D
:100D50008083E0910A03F0910B031082E0910C0371
:100D6000F0910D0380E1808310921603E09112034D
:100D7000F091130386E08083E0911003F09111035A
:100D8000808180618083E0911003F0911103808164
:100D900088608083E0911003F09111038081806866
:100DA0008083E0911003F091110380818F7D808317
:100DB00068E874E085E792E00E949E056CE874E0C4
:100DC0008AE792E00E949E0567E974E081E892E07C
:100DD0000E949E0563E175E089E892E00E949E050D
:100DE00063E575E08EE892E00E949E0560EB74E09A
:100DF00083E992E00E949E0561EA74E088E992E04E
:100E00000E949E058EE992E00E947A048EEF92E0A5
:100E10000E94A701892B09F489C08EEF92E00E94FD
:100E20008501182F883009F453C08D3009F067C050
:100E3000E091FC02F091FD02108288E192E00E94B4
:100E4000620460EB72E080EC92E00E9400099A83F9
:100E500089837E0123E0E20EF11C01E010E0D02E38
:100E6000C12E60EB72E090E080E00E940009D701A3
:100E70008D939D937D010E31110521F00F5F1F4F62
:100E8000892B69F70091BE021091BF02E980FA80B8
:100E90000115110591F0F80160817181C7010E946F
:100EA0004F0A892B89F4D8011296ED91FC91BE016D
:100EB0006F5F7F4F8D2D9C2D199580EC92E0909364
:100EC000FD028093FC02A2CFF80104811581E0CFDE
:100ED000E091FE02F091FF020190F081E02D68E0C8
:100EE0008EEF92E019958091FC029091FD02F2E064
:100EF000803C9F0709F008F489CF0197E0CFE0918B
:100F0000FE02F091FF020190F081E02D682F8EEF3C
:100F100092E01995E091FC02F091FD02CF0101965B
:100F20009093FD028093FC02108370CF0E944C02CC
:100F30006DCFEEEFF2E01382128288EE93E0A0E034
:100F4000B0E084839583A683B7838AE092E091839F
:100F5000808385EC90E09587848784EC90E0978788
:100F6000868780EC90E0918B808B81EC90E0938B76
:100F7000828B82EC90E0958B848B86EC90E0978B53
:100F8000868B118E128E138E148E08953F924F927F
:100F90005F926F927F928F929F92AF92BF92CF9209
:100FA000DF92EF92FF920F931F93CF93DF935C0139
:100FB0006B017A016115710519F0FB019183808342
:100FC000E114F10429F0C7010297839708F0E5C006
:100FD000E5012196F5011081812F90E00E94F7082C
:100FE000892B11F05E01F4CF1D3229F42196F50111
:100FF000118101E007C01B3221F4E5012296F501C1
:10100000118100E0E114F10409F1F0E1EF16F104BF
:1010100029F43FC010E3E114F10421F128E0E216C5
:10102000F10401F154F4E2E0EE16F10421F5812C13
:10103000912CA12CB0E4BB2E3EC0FAE0EF16F104D7
:1010400039F020E1E216F104B1F430C0103319F1A7
:10105000FAE0EF2EF12CACEC8A2E982CA82CACE008
:10106000BA2E29C078E0E72EF12C812C912CA12CEE
:10107000E0E1BE2E20C060E070E080E090E89701E3
:101080000F2C000C440B550B0E946F0A49015A01AA
:1010900012C0103359F488818F7D883509F0BACF9A
:1010A00019812296026080E1E82EF12C812C912C8E
:1010B000A12C68E0B62E40E060E070E0CB01270193
:1010C0000F2C000C66087708FE0150ED352E310E0E
:1010D00029E0231570F42FEB210F2A3118F439EC95
:1010E000332E06C02FE9210F2A3118F529EA322EB6
:1010F000310E232D30E02E153F05DCF447FD16C0E0
:1011000086169706A806B90670F0A30192010E9400
:101110005F0A630D711D811D911D6130710581058F
:1011200020E8920710F04FEF01C041E021961081B6
:10113000CBCF202F2170C114D10471F0442329F0AA
:101140002197F601D183C08307C001FF19C0229700
:10115000F601D183C08314C047FF12C0222329F0B7
:1011600060E070E080E090E804C06FEF7FEF8FEF09
:101170009FE722E230E030939E0320939D0309C055
:10118000222381F090958095709561957F4F8F4FC8
:101190009F4F462F372F282F12C040E030E020E02D
:1011A00090E00DC097FFF5CF82E290E090939E0310
:1011B00080939D036FEF7FEF8FEF9FE7EACF642F60
:1011C000732F822FDF91CF911F910F91FF90EF909E
:1011D000DF90CF90BF90AF909F908F907F906F9057
:1011E0005F904F903F900895F8940C94B30A91113A
:1011F0000C942B09803219F089508550C8F7089556
:101200004BE953E00C940409FA01A191B0810097D5
:1012100019F41097E1F0CD01DC01CD010D90002013
:1012200011F4C00113C0FB012191222319F02015F4
:10123000D9F7F3CFFB012191201519F41E921196D5
:1012400006C02223C1F70D900020A1F7D001FA01BA
:10125000A193B08308959927882708950F931F932A
:10126000CF93DF938230910510F482E090E0E0911B
:10127000A103F091A20320E030E0A0E0B0E03097BD
:1012800019F1408151810281138148175907C8F033
:101290008417950769F4109731F012960C93129702
:1012A00013961C9327C00093A1031093A20322C09E
:1012B0002115310519F04217530718F49A01BD01A1
:1012C000EF01DF01F801DBCF21153105F9F0281B13
:1012D000390B2430310580F48A819B8161157105B9
:1012E00021F0FB019383828304C09093A203809337
:1012F000A103FE01329644C0FE01E20FF31F819369
:10130000919322503109398328833AC020919F0359
:101310003091A003232B41F420910202309103026B
:101320003093A00320939F0320910002309101028B
:101330002115310541F42DB73EB74091040250917B
:101340000502241B350BE0919F03F091A003E217E7
:10135000F307A0F42E1B3F0B2817390778F0AC01D8
:101360004E5F5F4F2417350748F04E0F5F1F5093B5
:10137000A00340939F038193919302C0E0E0F0E0CB
:10138000CF01DF91CF911F910F910895CF93DF93FC
:10139000009709F481C0FC01329713821282A09158
:1013A000A103B091A203109781F420813181820FB3
:1013B000931F20919F033091A0032817390751F5FF
:1013C000F093A003E0939F0367C0ED0120E030E0BD
:1013D000CE17DF0740F44A815B819E01411551051C
:1013E000F1F0EA01F5CFD383C28340815181840FAC
:1013F000951FC817D90759F488819981840F951FC3
:101400000296918380838A819B81938382832115B5
:10141000310529F4F093A203E093A1033DC0E90153
:10142000FB83EA8349915991C40FD51FEC17FD073F
:1014300061F480819181840F951F0296E90199835F
:101440008883828193819B838A83E0E0F0E0129617
:101450008D919C911397009719F0FD01DC01F7CF56
:101460008D919C9111979D012E5F3F4F820F931F8D
:1014700020919F033091A0032817390769F4309712
:1014800029F41092A2031092A10302C013821282C7
:10149000B093A003A0939F03DF91CF910895FB0128
:1014A000DC018D91019080190110D9F3990B0895F9
:1014B000FB01DC0101900D920020E1F70895DB01B2
:1014C0008F939F930E94910ABF91AF91A29F800D2D
:1014D000911DA39F900DB29F900D11240895A1E23C
:1014E0001A2EAA1BBB1BFD010DC0AA1FBB1FEE1F9E
:1014F000FF1FA217B307E407F50720F0A21BB30BE9
:10150000E40BF50B661F771F881F991F1A9469F764
:1015100060957095809590959B01AC01BD01CF01C0
:1015200008950E949C0AA59F900DB49F900DA49FC2
:10153000800D911D11240895A29FB001B39FC00199
:10154000A39F700D811D1124911DB29F700D811DEF
:101550001124911D0895EE0FFF1F881F8BBF079068
:10156000F691E02D1994F894FFCFC002C402B202A4
:10157000B802BC02F202C702CD02D102D702DB02DE
:0E158000DF02E502E902F202ED02F302F702D9
:10158E000000A303200000000000D5017D027601BB
:10159E002202A701850199010D0A00706F6E670086
:1015AE0073756363657373006572726F723A646507
:1015BE006275676765722064697361626C65640049
:1015CE0077616974696E67003A0030006572726FF8
:1015DE00723A746F6F2066657720617267756D65FC
:1015EE006E74732C206E65656420726567206E754F
:1015FE006D6265720070696E6700656E61626C6522
:10160E000064697361626C65007265677300726570
:10161E0061640073746570007265736574006D6348
:10162E00706320646562756767657220302E3100C5
:02163E0020008A
:00000001FF
